{
  "contractName": "GoAfrica",
  "abi": [
    {
      "anonymous": false,
      "inputs": [
        {
          "indexed": false,
          "internalType": "address",
          "name": "contractAddress",
          "type": "address"
        },
        {
          "indexed": false,
          "internalType": "address",
          "name": "projectCreator",
          "type": "address"
        },
        {
          "indexed": false,
          "internalType": "uint256",
          "name": "ref",
          "type": "uint256"
        },
        {
          "indexed": false,
          "internalType": "string",
          "name": "title",
          "type": "string"
        },
        {
          "indexed": false,
          "internalType": "uint256",
          "name": "goalAmount",
          "type": "uint256"
        }
      ],
      "name": "ProjectStarted",
      "type": "event"
    },
    {
      "inputs": [
        {
          "internalType": "uint256",
          "name": "",
          "type": "uint256"
        }
      ],
      "name": "projects",
      "outputs": [
        {
          "internalType": "contract Project",
          "name": "",
          "type": "address"
        }
      ],
      "stateMutability": "view",
      "type": "function",
      "constant": true
    },
    {
      "inputs": [
        {
          "internalType": "uint256",
          "name": "projectRef",
          "type": "uint256"
        }
      ],
      "name": "getProjectByRef",
      "outputs": [
        {
          "internalType": "contract Project",
          "name": "proj",
          "type": "address"
        },
        {
          "internalType": "uint256",
          "name": "ref",
          "type": "uint256"
        },
        {
          "internalType": "uint256",
          "name": "goalAmount",
          "type": "uint256"
        },
        {
          "internalType": "uint256",
          "name": "currentAmount",
          "type": "uint256"
        },
        {
          "internalType": "string",
          "name": "title",
          "type": "string"
        }
      ],
      "stateMutability": "view",
      "type": "function",
      "constant": true
    },
    {
      "inputs": [
        {
          "internalType": "uint256",
          "name": "projectRef",
          "type": "uint256"
        }
      ],
      "name": "getprojectAddress",
      "outputs": [
        {
          "internalType": "contract Project",
          "name": "project",
          "type": "address"
        }
      ],
      "stateMutability": "view",
      "type": "function",
      "constant": true
    },
    {
      "inputs": [
        {
          "internalType": "contract IERC20",
          "name": "ercToken",
          "type": "address"
        },
        {
          "internalType": "uint256",
          "name": "projectRef",
          "type": "uint256"
        },
        {
          "internalType": "uint256",
          "name": "projectGoalAmount",
          "type": "uint256"
        },
        {
          "internalType": "string",
          "name": "projectTitle",
          "type": "string"
        }
      ],
      "name": "createProject",
      "outputs": [
        {
          "internalType": "contract Project",
          "name": "",
          "type": "address"
        }
      ],
      "stateMutability": "nonpayable",
      "type": "function"
    },
    {
      "inputs": [],
      "name": "returnProjectsAddresses",
      "outputs": [
        {
          "internalType": "contract Project[]",
          "name": "",
          "type": "address[]"
        }
      ],
      "stateMutability": "view",
      "type": "function",
      "constant": true
    }
  ],
  "bytecode": "0x608060405234801561001057600080fd5b50614cac806100206000396000f3fe60806040523480156200001157600080fd5b50600436106200005e5760003560e01c8063107046bd14620000635780632e6e7fe51462000099578063c954e7ac14620000d3578063d3d83ead1462000109578063e07d236f146200012b575b600080fd5b6200008160048036038101906200007b919062000756565b62000161565b60405162000090919062000813565b60405180910390f35b620000b76004803603810190620000b1919062000756565b620001a1565b604051620000ca959493929190620008e5565b60405180910390f35b620000f16004803603810190620000eb919062000a10565b62000477565b60405162000100919062000813565b60405180910390f35b6200011362000572565b60405162000122919062000b74565b60405180910390f35b62000149600480360381019062000143919062000756565b62000602565b60405162000158919062000813565b60405180910390f35b600081815481106200017257600080fd5b906000526020600020016000915054906101000a900473ffffffffffffffffffffffffffffffffffffffff1681565b600080600080606060005b6000805490508110156200046c5760008181548110620001d157620001d062000b98565b5b9060005260206000200160009054906101000a900473ffffffffffffffffffffffffffffffffffffffff169550868673ffffffffffffffffffffffffffffffffffffffff166313a879776040518163ffffffff1660e01b8152600401602060405180830381865afa1580156200024b573d6000803e3d6000fd5b505050506040513d601f19601f8201168201806040525081019062000271919062000bde565b036200045657858673ffffffffffffffffffffffffffffffffffffffff166313a879776040518163ffffffff1660e01b8152600401602060405180830381865afa158015620002c4573d6000803e3d6000fd5b505050506040513d601f19601f82011682018060405250810190620002ea919062000bde565b8773ffffffffffffffffffffffffffffffffffffffff1663a533cb686040518163ffffffff1660e01b8152600401602060405180830381865afa15801562000336573d6000803e3d6000fd5b505050506040513d601f19601f820116820180604052508101906200035c919062000bde565b8873ffffffffffffffffffffffffffffffffffffffff1663515336c76040518163ffffffff1660e01b8152600401602060405180830381865afa158015620003a8573d6000803e3d6000fd5b505050506040513d601f19601f82011682018060405250810190620003ce919062000bde565b8973ffffffffffffffffffffffffffffffffffffffff1663ff3c1a8f6040518163ffffffff1660e01b8152600401600060405180830381865afa1580156200041a573d6000803e3d6000fd5b505050506040513d6000823e3d601f19601f8201168201806040525081019062000445919062000d4d565b95509550955095509550506200046e565b8080620004639062000dcd565b915050620001ac565b505b91939590929450565b6000808633878787876040516200048e90620006f9565b6200049f9695949392919062000ea6565b604051809103906000f080158015620004bc573d6000803e3d6000fd5b5090506000819080600181540180825580915050600190039060005260206000200160009091909190916101000a81548173ffffffffffffffffffffffffffffffffffffffff021916908373ffffffffffffffffffffffffffffffffffffffff1602179055507f39d2c97e7d7927c27d9e1470743a75382e42afabf1447cf9215e0817f5a60f2281338887878a6040516200055d9695949392919062000f1d565b60405180910390a18091505095945050505050565b60606000805480602002602001604051908101604052809291908181526020018280548015620005f857602002820191906000526020600020905b8160009054906101000a900473ffffffffffffffffffffffffffffffffffffffff1673ffffffffffffffffffffffffffffffffffffffff1681526020019060010190808311620005ad575b5050505050905090565b600080600090505b600080549050811015620006f257600081815481106200062f576200062e62000b98565b5b9060005260206000200160009054906101000a900473ffffffffffffffffffffffffffffffffffffffff169150828273ffffffffffffffffffffffffffffffffffffffff166313a879776040518163ffffffff1660e01b8152600401602060405180830381865afa158015620006a9573d6000803e3d6000fd5b505050506040513d601f19601f82011682018060405250810190620006cf919062000bde565b03620006dc5750620006f4565b8080620006e99062000dcd565b9150506200060a565b505b919050565b613cf38062000f8483390190565b6000604051905090565b600080fd5b600080fd5b6000819050919050565b62000730816200071b565b81146200073c57600080fd5b50565b600081359050620007508162000725565b92915050565b6000602082840312156200076f576200076e62000711565b5b60006200077f848285016200073f565b91505092915050565b600073ffffffffffffffffffffffffffffffffffffffff82169050919050565b6000819050919050565b6000620007d3620007cd620007c78462000788565b620007a8565b62000788565b9050919050565b6000620007e782620007b2565b9050919050565b6000620007fb82620007da565b9050919050565b6200080d81620007ee565b82525050565b60006020820190506200082a600083018462000802565b92915050565b6200083b816200071b565b82525050565b600081519050919050565b600082825260208201905092915050565b60005b838110156200087d57808201518184015260208101905062000860565b838111156200088d576000848401525b50505050565b6000601f19601f8301169050919050565b6000620008b18262000841565b620008bd81856200084c565b9350620008cf8185602086016200085d565b620008da8162000893565b840191505092915050565b600060a082019050620008fc600083018862000802565b6200090b602083018762000830565b6200091a604083018662000830565b62000929606083018562000830565b81810360808301526200093d8184620008a4565b90509695505050505050565b6000620009568262000788565b9050919050565b60006200096a8262000949565b9050919050565b6200097c816200095d565b81146200098857600080fd5b50565b6000813590506200099c8162000971565b92915050565b600080fd5b600080fd5b600080fd5b60008083601f840112620009ca57620009c9620009a2565b5b8235905067ffffffffffffffff811115620009ea57620009e9620009a7565b5b60208301915083600182028301111562000a095762000a08620009ac565b5b9250929050565b60008060008060006080868803121562000a2f5762000a2e62000711565b5b600062000a3f888289016200098b565b955050602062000a52888289016200073f565b945050604062000a65888289016200073f565b935050606086013567ffffffffffffffff81111562000a895762000a8862000716565b5b62000a9788828901620009b1565b92509250509295509295909350565b600081519050919050565b600082825260208201905092915050565b6000819050602082019050919050565b62000add81620007ee565b82525050565b600062000af1838362000ad2565b60208301905092915050565b6000602082019050919050565b600062000b178262000aa6565b62000b23818562000ab1565b935062000b308362000ac2565b8060005b8381101562000b6757815162000b4b888262000ae3565b975062000b588362000afd565b92505060018101905062000b34565b5085935050505092915050565b6000602082019050818103600083015262000b90818462000b0a565b905092915050565b7f4e487b7100000000000000000000000000000000000000000000000000000000600052603260045260246000fd5b60008151905062000bd88162000725565b92915050565b60006020828403121562000bf75762000bf662000711565b5b600062000c078482850162000bc7565b91505092915050565b600080fd5b7f4e487b7100000000000000000000000000000000000000000000000000000000600052604160045260246000fd5b62000c4f8262000893565b810181811067ffffffffffffffff8211171562000c715762000c7062000c15565b5b80604052505050565b600062000c8662000707565b905062000c94828262000c44565b919050565b600067ffffffffffffffff82111562000cb75762000cb662000c15565b5b62000cc28262000893565b9050602081019050919050565b600062000ce662000ce08462000c99565b62000c7a565b90508281526020810184848401111562000d055762000d0462000c10565b5b62000d128482856200085d565b509392505050565b600082601f83011262000d325762000d31620009a2565b5b815162000d4484826020860162000ccf565b91505092915050565b60006020828403121562000d665762000d6562000711565b5b600082015167ffffffffffffffff81111562000d875762000d8662000716565b5b62000d958482850162000d1a565b91505092915050565b7f4e487b7100000000000000000000000000000000000000000000000000000000600052601160045260246000fd5b600062000dda826200071b565b91507fffffffffffffffffffffffffffffffffffffffffffffffffffffffffffffffff820362000e0f5762000e0e62000d9e565b5b600182019050919050565b600062000e2782620007da565b9050919050565b62000e398162000e1a565b82525050565b600062000e4c8262000788565b9050919050565b62000e5e8162000e3f565b82525050565b82818337600083830152505050565b600062000e8183856200084c565b935062000e9083858462000e64565b62000e9b8362000893565b840190509392505050565b600060a08201905062000ebd600083018962000e2e565b62000ecc602083018862000e53565b62000edb604083018762000830565b62000eea606083018662000830565b818103608083015262000eff81848662000e73565b9050979650505050505050565b62000f178162000949565b82525050565b600060a08201905062000f34600083018962000f0c565b62000f43602083018862000f0c565b62000f52604083018762000830565b818103606083015262000f6781858762000e73565b905062000f78608083018462000830565b97965050505050505056fe608060405260008060006101000a81548160ff021916908360028111156200002c576200002b620001d5565b5b021790555060006006553480156200004357600080fd5b5060405162003cf338038062003cf383398181016040528101906200006991906200049a565b84600060016101000a81548173ffffffffffffffffffffffffffffffffffffffff021916908373ffffffffffffffffffffffffffffffffffffffff16021790555083600160006101000a81548173ffffffffffffffffffffffffffffffffffffffff021916908373ffffffffffffffffffffffffffffffffffffffff1602179055508160028190555060006003819055508260048190555080600590805190602001906200011992919062000125565b505050505050620005a5565b828054620001339062000570565b90600052602060002090601f016020900481019282620001575760008555620001a3565b82601f106200017257805160ff1916838001178555620001a3565b82800160010185558215620001a3579182015b82811115620001a257825182559160200191906001019062000185565b5b509050620001b29190620001b6565b5090565b5b80821115620001d1576000816000905550600101620001b7565b5090565b7f4e487b7100000000000000000000000000000000000000000000000000000000600052602160045260246000fd5b6000604051905090565b600080fd5b600080fd5b600073ffffffffffffffffffffffffffffffffffffffff82169050919050565b6000620002458262000218565b9050919050565b6000620002598262000238565b9050919050565b6200026b816200024c565b81146200027757600080fd5b50565b6000815190506200028b8162000260565b92915050565b60006200029e8262000218565b9050919050565b620002b08162000291565b8114620002bc57600080fd5b50565b600081519050620002d081620002a5565b92915050565b6000819050919050565b620002eb81620002d6565b8114620002f757600080fd5b50565b6000815190506200030b81620002e0565b92915050565b600080fd5b600080fd5b6000601f19601f8301169050919050565b7f4e487b7100000000000000000000000000000000000000000000000000000000600052604160045260246000fd5b62000366826200031b565b810181811067ffffffffffffffff821117156200038857620003876200032c565b5b80604052505050565b60006200039d62000204565b9050620003ab82826200035b565b919050565b600067ffffffffffffffff821115620003ce57620003cd6200032c565b5b620003d9826200031b565b9050602081019050919050565b60005b8381101562000406578082015181840152602081019050620003e9565b8381111562000416576000848401525b50505050565b6000620004336200042d84620003b0565b62000391565b90508281526020810184848401111562000452576200045162000316565b5b6200045f848285620003e6565b509392505050565b600082601f8301126200047f576200047e62000311565b5b8151620004918482602086016200041c565b91505092915050565b600080600080600060a08688031215620004b957620004b86200020e565b5b6000620004c9888289016200027a565b9550506020620004dc88828901620002bf565b9450506040620004ef88828901620002fa565b93505060606200050288828901620002fa565b925050608086015167ffffffffffffffff81111562000526576200052562000213565b5b620005348882890162000467565b9150509295509295909350565b7f4e487b7100000000000000000000000000000000000000000000000000000000600052602260045260246000fd5b600060028204905060018216806200058957607f821691505b6020821081036200059f576200059e62000541565b5b50919050565b61373e80620005b56000396000f3fe6080604052600436106101665760003560e01c8063a533cb68116100d1578063ce845d1d1161008a578063ea6928c111610064578063ea6928c114610527578063f8c14f0314610552578063fbbf93a014610582578063ff3c1a8f146105b557610166565b8063ce845d1d146104b8578063d5091bf0146104e3578063dda0a81a146104fa57610166565b8063a533cb68146103a1578063a541a2a2146103cc578063a9e966b7146103f7578063b19af9aa14610420578063bbccdf3914610450578063c19d93fb1461048d57610166565b806355e877961161012357806355e877961461027f5780635faae949146102aa57806360c86bdc146102d357806361ec69cd146102fe578063705d71571461033b57806372910be01461037857610166565b806313a879771461016b57806321a78f68146101965780632636b945146101c15780634a79d50c146101ec578063515336c71461021757806354cf689414610242575b600080fd5b34801561017757600080fd5b506101806105e0565b60405161018d91906126cc565b60405180910390f35b3480156101a257600080fd5b506101ab6105ea565b6040516101b891906126cc565b60405180910390f35b3480156101cd57600080fd5b506101d66105f0565b6040516101e391906126cc565b60405180910390f35b3480156101f857600080fd5b506102016105f6565b60405161020e9190612780565b60405180910390f35b34801561022357600080fd5b5061022c610684565b60405161023991906126cc565b60405180910390f35b34801561024e57600080fd5b50610269600480360381019061026491906127d8565b61068e565b6040516102769190612820565b60405180910390f35b34801561028b57600080fd5b506102946106f7565b6040516102a19190612a01565b60405180910390f35b3480156102b657600080fd5b506102d160048036038101906102cc91906127d8565b6108da565b005b3480156102df57600080fd5b506102e861093e565b6040516102f591906126cc565b60405180910390f35b34801561030a57600080fd5b5061032560048036038101906103209190612ab4565b610944565b6040516103329190612820565b60405180910390f35b34801561034757600080fd5b50610362600480360381019061035d9190612ab4565b610c6a565b60405161036f9190612820565b60405180910390f35b34801561038457600080fd5b5061039f600480360381019061039a9190612b5b565b610eb0565b005b3480156103ad57600080fd5b506103b6610f20565b6040516103c391906126cc565b60405180910390f35b3480156103d857600080fd5b506103e1610f2a565b6040516103ee9190612bc9565b60405180910390f35b34801561040357600080fd5b5061041e600480360381019061041991906127d8565b610f50565b005b61043a60048036038101906104359190612be4565b611047565b6040516104479190612820565b60405180910390f35b34801561045c57600080fd5b5061047760048036038101906104729190612c8b565b6113a8565b6040516104849190612820565b60405180910390f35b34801561049957600080fd5b506104a2611553565b6040516104af9190612d42565b60405180910390f35b3480156104c457600080fd5b506104cd611564565b6040516104da91906126cc565b60405180910390f35b3480156104ef57600080fd5b506104f861156a565b005b34801561050657600080fd5b5061050f6115a2565b60405161051e93929190612e9c565b60405180910390f35b34801561053357600080fd5b5061053c6117a1565b6040516105499190613006565b60405180910390f35b61056c600480360381019061056791906127d8565b611984565b6040516105799190612820565b60405180910390f35b34801561058e57600080fd5b50610597611e3d565b6040516105ac99989796959493929190613028565b60405180910390f35b3480156105c157600080fd5b506105ca6124cc565b6040516105d79190612780565b60405180910390f35b6000600454905090565b60045481565b60025481565b6005805461060390613100565b80601f016020809104026020016040519081016040528092919081815260200182805461062f90613100565b801561067c5780601f106106515761010080835404028352916020019161067c565b820191906000526020600020905b81548152906001019060200180831161065f57829003601f168201915b505050505081565b6000600354905090565b600080600090505b6007805490508110156106ec5782600782815481106106b8576106b7613131565b5b906000526020600020906005020160010154036106d95760019150506106f2565b80806106e49061318f565b915050610696565b50600090505b919050565b60606009805480602002602001604051908101604052809291908181526020016000905b828210156108d1578382906000526020600020906004020160405180608001604052908160008201805461074e90613100565b80601f016020809104026020016040519081016040528092919081815260200182805461077a90613100565b80156107c75780601f1061079c576101008083540402835291602001916107c7565b820191906000526020600020905b8154815290600101906020018083116107aa57829003601f168201915b505050505081526020016001820160009054906101000a900473ffffffffffffffffffffffffffffffffffffffff1673ffffffffffffffffffffffffffffffffffffffff1673ffffffffffffffffffffffffffffffffffffffff16815260200160028201805461083690613100565b80601f016020809104026020016040519081016040528092919081815260200182805461086290613100565b80156108af5780601f10610884576101008083540402835291602001916108af565b820191906000526020600020905b81548152906001019060200180831161089257829003601f168201915b505050505081526020016003820154815250508152602001906001019061071b565b50505050905090565b600160009054906101000a900473ffffffffffffffffffffffffffffffffffffffff1673ffffffffffffffffffffffffffffffffffffffff163373ffffffffffffffffffffffffffffffffffffffff161461093457600080fd5b8060048190555050565b60065481565b6000600160009054906101000a900473ffffffffffffffffffffffffffffffffffffffff1673ffffffffffffffffffffffffffffffffffffffff163373ffffffffffffffffffffffffffffffffffffffff16146109d6576040517f08c379a00000000000000000000000000000000000000000000000000000000081526004016109cd90613249565b60405180910390fd5b600354821115610a1b576040517f08c379a0000000000000000000000000000000000000000000000000000000008152600401610a12906132db565b60405180910390fd5b600060019054906101000a900473ffffffffffffffffffffffffffffffffffffffff1673ffffffffffffffffffffffffffffffffffffffff1663a9059cbb86846040518363ffffffff1660e01b8152600401610a7892919061335a565b6020604051808303816000875af1158015610a97573d6000803e3d6000fd5b505050506040513d601f19601f82011682018060405250810190610abb91906133af565b15610c5b57610ad58260035461255e90919063ffffffff16565b6003819055506009604051806080016040528089898080601f016020809104026020016040519081016040528093929190818152602001838380828437600081840152601f19601f8201169050808301925050505050505081526020018773ffffffffffffffffffffffffffffffffffffffff16815260200186868080601f016020809104026020016040519081016040528093929190818152602001838380828437600081840152601f19601f8201169050808301925050505050505081526020018481525090806001815401808255809150506001900390600052602060002090600402016000909190919091506000820151816000019080519060200190610be192919061258a565b5060208201518160010160006101000a81548173ffffffffffffffffffffffffffffffffffffffff021916908373ffffffffffffffffffffffffffffffffffffffff1602179055506040820151816002019080519060200190610c4592919061258a565b5060608201518160030155505060019050610c60565b600090505b9695505050505050565b6000600160009054906101000a900473ffffffffffffffffffffffffffffffffffffffff1673ffffffffffffffffffffffffffffffffffffffff163373ffffffffffffffffffffffffffffffffffffffff1614610cc657600080fd5b60008211610cd357600080fd5b610ce88260035461257490919063ffffffff16565b6003819055506008604051806080016040528089898080601f016020809104026020016040519081016040528093929190818152602001838380828437600081840152601f19601f8201169050808301925050505050505081526020018773ffffffffffffffffffffffffffffffffffffffff16815260200186868080601f016020809104026020016040519081016040528093929190818152602001838380828437600081840152601f19601f8201169050808301925050505050505081526020018481525090806001815401808255809150506001900390600052602060002090600402016000909190919091506000820151816000019080519060200190610df492919061258a565b5060208201518160010160006101000a81548173ffffffffffffffffffffffffffffffffffffffff021916908373ffffffffffffffffffffffffffffffffffffffff1602179055506040820151816002019080519060200190610e5892919061258a565b506060820151816003015550507fb1bd58229606cd4dec94cb51b41275ea217cfa548aac87d25510ea49595312e53383600354604051610e9a939291906133eb565b60405180910390a1600190509695505050505050565b600160009054906101000a900473ffffffffffffffffffffffffffffffffffffffff1673ffffffffffffffffffffffffffffffffffffffff163373ffffffffffffffffffffffffffffffffffffffff1614610f0a57600080fd5b818160059190610f1b929190612610565b505050565b6000600254905090565b600160009054906101000a900473ffffffffffffffffffffffffffffffffffffffff1681565b600160009054906101000a900473ffffffffffffffffffffffffffffffffffffffff1673ffffffffffffffffffffffffffffffffffffffff163373ffffffffffffffffffffffffffffffffffffffff1614610faa57600080fd5b60008103610fe15760008060006101000a81548160ff02191690836002811115610fd757610fd6612ccb565b5b0217905550611044565b600181036110185760016000806101000a81548160ff0219169083600281111561100e5761100d612ccb565b5b0217905550611043565b60026000806101000a81548160ff0219169083600281111561103d5761103c612ccb565b5b02179055505b5b50565b60008080600281111561105d5761105c612ccb565b5b60008054906101000a900460ff16600281111561107d5761107c612ccb565b5b146110bd576040517f08c379a00000000000000000000000000000000000000000000000000000000081526004016110b490613494565b60405180910390fd5b600254856003546110ce91906134b4565b111561110f576040517f08c379a000000000000000000000000000000000000000000000000000000000815260040161110690613556565b60405180910390fd5b600060019054906101000a900473ffffffffffffffffffffffffffffffffffffffff1673ffffffffffffffffffffffffffffffffffffffff166323b872dd3330886040518463ffffffff1660e01b815260040161116e93929190613576565b6020604051808303816000875af115801561118d573d6000803e3d6000fd5b505050506040513d601f19601f820116820180604052508101906111b191906133af565b5060076040518060a001604052808a8a8080601f016020809104026020016040519081016040528093929190818152602001838380828437600081840152601f19601f82011690508083019250505050505050815260200188815260200186868080601f016020809104026020016040519081016040528093929190818152602001838380828437600081840152601f19601f8201169050808301925050505050505081526020013373ffffffffffffffffffffffffffffffffffffffff16815260200187815250908060018154018082558091505060019003906000526020600020906005020160009091909190915060008201518160000190805190602001906112be92919061258a565b506020820151816001015560408201518160020190805190602001906112e592919061258a565b5060608201518160030160006101000a81548173ffffffffffffffffffffffffffffffffffffffff021916908373ffffffffffffffffffffffffffffffffffffffff16021790555060808201518160040155505061134e8560035461257490919063ffffffff16565b60038190555061135c61156a565b7fb1bd58229606cd4dec94cb51b41275ea217cfa548aac87d25510ea49595312e53386600354604051611391939291906133eb565b60405180910390a160019150509695505050505050565b6000600160009054906101000a900473ffffffffffffffffffffffffffffffffffffffff1673ffffffffffffffffffffffffffffffffffffffff163373ffffffffffffffffffffffffffffffffffffffff161461143a576040517f08c379a00000000000000000000000000000000000000000000000000000000081526004016114319061361f565b60405180910390fd5b60006003541161147f576040517f08c379a00000000000000000000000000000000000000000000000000000000081526004016114769061368b565b60405180910390fd5b600060019054906101000a900473ffffffffffffffffffffffffffffffffffffffff1673ffffffffffffffffffffffffffffffffffffffff1663a9059cbb84846040518363ffffffff1660e01b81526004016114dc9291906136ab565b6020604051808303816000875af11580156114fb573d6000803e3d6000fd5b505050506040513d601f19601f8201168201806040525081019061151f91906133af565b15611548576115398260035461255e90919063ffffffff16565b6003819055506001905061154d565b600090505b92915050565b60008054906101000a900460ff1681565b60035481565b600254600354106115a05760016000806101000a81548160ff0219169083600281111561159a57611599612ccb565b5b02179055505b565b6060600080600760035460025482805480602002602001604051908101604052809291908181526020016000905b8282101561179057838290600052602060002090600502016040518060a001604052908160008201805461160390613100565b80601f016020809104026020016040519081016040528092919081815260200182805461162f90613100565b801561167c5780601f106116515761010080835404028352916020019161167c565b820191906000526020600020905b81548152906001019060200180831161165f57829003601f168201915b505050505081526020016001820154815260200160028201805461169f90613100565b80601f01602080910402602001604051908101604052809291908181526020018280546116cb90613100565b80156117185780601f106116ed57610100808354040283529160200191611718565b820191906000526020600020905b8154815290600101906020018083116116fb57829003601f168201915b505050505081526020016003820160009054906101000a900473ffffffffffffffffffffffffffffffffffffffff1673ffffffffffffffffffffffffffffffffffffffff1673ffffffffffffffffffffffffffffffffffffffff168152602001600482015481525050815260200190600101906115d0565b505050509250925092509250909192565b60606008805480602002602001604051908101604052809291908181526020016000905b8282101561197b57838290600052602060002090600402016040518060800160405290816000820180546117f890613100565b80601f016020809104026020016040519081016040528092919081815260200182805461182490613100565b80156118715780601f1061184657610100808354040283529160200191611871565b820191906000526020600020905b81548152906001019060200180831161185457829003601f168201915b505050505081526020016001820160009054906101000a900473ffffffffffffffffffffffffffffffffffffffff1673ffffffffffffffffffffffffffffffffffffffff1673ffffffffffffffffffffffffffffffffffffffff1681526020016002820180546118e090613100565b80601f016020809104026020016040519081016040528092919081815260200182805461190c90613100565b80156119595780601f1061192e57610100808354040283529160200191611959565b820191906000526020600020905b81548152906001019060200180831161193c57829003601f168201915b50505050508152602001600382015481525050815260200190600101906117c5565b50505050905090565b60008080600281111561199a57611999612ccb565b5b60008054906101000a900460ff1660028111156119ba576119b9612ccb565b5b146119fa576040517f08c379a00000000000000000000000000000000000000000000000000000000081526004016119f190613494565b60405180910390fd5b60025483600354611a0b91906134b4565b1115611a4c576040517f08c379a0000000000000000000000000000000000000000000000000000000008152600401611a4390613556565b60405180910390fd5b60006007805480602002602001604051908101604052809291908181526020016000905b82821015611c3057838290600052602060002090600502016040518060a0016040529081600082018054611aa390613100565b80601f0160208091040260200160405190810160405280929190818152602001828054611acf90613100565b8015611b1c5780601f10611af157610100808354040283529160200191611b1c565b820191906000526020600020905b815481529060010190602001808311611aff57829003601f168201915b5050505050815260200160018201548152602001600282018054611b3f90613100565b80601f0160208091040260200160405190810160405280929190818152602001828054611b6b90613100565b8015611bb85780601f10611b8d57610100808354040283529160200191611bb8565b820191906000526020600020905b815481529060010190602001808311611b9b57829003601f168201915b505050505081526020016003820160009054906101000a900473ffffffffffffffffffffffffffffffffffffffff1673ffffffffffffffffffffffffffffffffffffffff1673ffffffffffffffffffffffffffffffffffffffff16815260200160048201548152505081526020019060010190611a70565b50505050905060008080600090505b8351811015611cb8573373ffffffffffffffffffffffffffffffffffffffff16848281518110611c7257611c71613131565b5b60200260200101516060015173ffffffffffffffffffffffffffffffffffffffff1603611ca55760019250809150611cb8565b8080611cb09061318f565b915050611c3f565b508115611e2f57600060019054906101000a900473ffffffffffffffffffffffffffffffffffffffff1673ffffffffffffffffffffffffffffffffffffffff166323b872dd3330896040518463ffffffff1660e01b8152600401611d1e93929190613576565b6020604051808303816000875af1158015611d3d573d6000803e3d6000fd5b505050506040513d601f19601f82011682018060405250810190611d6191906133af565b50611d9a8660078381548110611d7a57611d79613131565b5b90600052602060002090600502016004015461257490919063ffffffff16565b60078281548110611dae57611dad613131565b5b906000526020600020906005020160040181905550611dd88660035461257490919063ffffffff16565b600381905550611de661156a565b7fb1bd58229606cd4dec94cb51b41275ea217cfa548aac87d25510ea49595312e53387600354604051611e1b939291906133eb565b60405180910390a160019450505050611e37565b600094505050505b50919050565b600080606060008060006060806060600160009054906101000a900473ffffffffffffffffffffffffffffffffffffffff169850600454975060058054611e8390613100565b80601f0160208091040260200160405190810160405280929190818152602001828054611eaf90613100565b8015611efc5780601f10611ed157610100808354040283529160200191611efc565b820191906000526020600020905b815481529060010190602001808311611edf57829003601f168201915b5050505050965060008054906101000a900460ff169550600254945060035493506007805480602002602001604051908101604052809291908181526020016000905b828210156120ff57838290600052602060002090600502016040518060a0016040529081600082018054611f7290613100565b80601f0160208091040260200160405190810160405280929190818152602001828054611f9e90613100565b8015611feb5780601f10611fc057610100808354040283529160200191611feb565b820191906000526020600020905b815481529060010190602001808311611fce57829003601f168201915b505050505081526020016001820154815260200160028201805461200e90613100565b80601f016020809104026020016040519081016040528092919081815260200182805461203a90613100565b80156120875780601f1061205c57610100808354040283529160200191612087565b820191906000526020600020905b81548152906001019060200180831161206a57829003601f168201915b505050505081526020016003820160009054906101000a900473ffffffffffffffffffffffffffffffffffffffff1673ffffffffffffffffffffffffffffffffffffffff1673ffffffffffffffffffffffffffffffffffffffff16815260200160048201548152505081526020019060010190611f3f565b5050505092506008805480602002602001604051908101604052809291908181526020016000905b828210156122dd578382906000526020600020906004020160405180608001604052908160008201805461215a90613100565b80601f016020809104026020016040519081016040528092919081815260200182805461218690613100565b80156121d35780601f106121a8576101008083540402835291602001916121d3565b820191906000526020600020905b8154815290600101906020018083116121b657829003601f168201915b505050505081526020016001820160009054906101000a900473ffffffffffffffffffffffffffffffffffffffff1673ffffffffffffffffffffffffffffffffffffffff1673ffffffffffffffffffffffffffffffffffffffff16815260200160028201805461224290613100565b80601f016020809104026020016040519081016040528092919081815260200182805461226e90613100565b80156122bb5780601f10612290576101008083540402835291602001916122bb565b820191906000526020600020905b81548152906001019060200180831161229e57829003601f168201915b5050505050815260200160038201548152505081526020019060010190612127565b5050505091506009805480602002602001604051908101604052809291908181526020016000905b828210156124bb578382906000526020600020906004020160405180608001604052908160008201805461233890613100565b80601f016020809104026020016040519081016040528092919081815260200182805461236490613100565b80156123b15780601f10612386576101008083540402835291602001916123b1565b820191906000526020600020905b81548152906001019060200180831161239457829003601f168201915b505050505081526020016001820160009054906101000a900473ffffffffffffffffffffffffffffffffffffffff1673ffffffffffffffffffffffffffffffffffffffff1673ffffffffffffffffffffffffffffffffffffffff16815260200160028201805461242090613100565b80601f016020809104026020016040519081016040528092919081815260200182805461244c90613100565b80156124995780601f1061246e57610100808354040283529160200191612499565b820191906000526020600020905b81548152906001019060200180831161247c57829003601f168201915b5050505050815260200160038201548152505081526020019060010190612305565b505050509050909192939495969798565b6060600580546124db90613100565b80601f016020809104026020016040519081016040528092919081815260200182805461250790613100565b80156125545780601f1061252957610100808354040283529160200191612554565b820191906000526020600020905b81548152906001019060200180831161253757829003601f168201915b5050505050905090565b6000818361256c91906136d4565b905092915050565b6000818361258291906134b4565b905092915050565b82805461259690613100565b90600052602060002090601f0160209004810192826125b857600085556125ff565b82601f106125d157805160ff19168380011785556125ff565b828001600101855582156125ff579182015b828111156125fe5782518255916020019190600101906125e3565b5b50905061260c9190612696565b5090565b82805461261c90613100565b90600052602060002090601f01602090048101928261263e5760008555612685565b82601f1061265757803560ff1916838001178555612685565b82800160010185558215612685579182015b82811115612684578235825591602001919060010190612669565b5b5090506126929190612696565b5090565b5b808211156126af576000816000905550600101612697565b5090565b6000819050919050565b6126c6816126b3565b82525050565b60006020820190506126e160008301846126bd565b92915050565b600081519050919050565b600082825260208201905092915050565b60005b83811015612721578082015181840152602081019050612706565b83811115612730576000848401525b50505050565b6000601f19601f8301169050919050565b6000612752826126e7565b61275c81856126f2565b935061276c818560208601612703565b61277581612736565b840191505092915050565b6000602082019050818103600083015261279a8184612747565b905092915050565b600080fd5b600080fd5b6127b5816126b3565b81146127c057600080fd5b50565b6000813590506127d2816127ac565b92915050565b6000602082840312156127ee576127ed6127a2565b5b60006127fc848285016127c3565b91505092915050565b60008115159050919050565b61281a81612805565b82525050565b60006020820190506128356000830184612811565b92915050565b600081519050919050565b600082825260208201905092915050565b6000819050602082019050919050565b600082825260208201905092915050565b6000612883826126e7565b61288d8185612867565b935061289d818560208601612703565b6128a681612736565b840191505092915050565b600073ffffffffffffffffffffffffffffffffffffffff82169050919050565b60006128dc826128b1565b9050919050565b6128ec816128d1565b82525050565b6128fb816126b3565b82525050565b6000608083016000830151848203600086015261291e8282612878565b915050602083015161293360208601826128e3565b506040830151848203604086015261294b8282612878565b915050606083015161296060608601826128f2565b508091505092915050565b60006129778383612901565b905092915050565b6000602082019050919050565b60006129978261283b565b6129a18185612846565b9350836020820285016129b385612857565b8060005b858110156129ef57848403895281516129d0858261296b565b94506129db8361297f565b925060208a019950506001810190506129b7565b50829750879550505050505092915050565b60006020820190508181036000830152612a1b818461298c565b905092915050565b600080fd5b600080fd5b600080fd5b60008083601f840112612a4857612a47612a23565b5b8235905067ffffffffffffffff811115612a6557612a64612a28565b5b602083019150836001820283011115612a8157612a80612a2d565b5b9250929050565b612a91816128d1565b8114612a9c57600080fd5b50565b600081359050612aae81612a88565b92915050565b60008060008060008060808789031215612ad157612ad06127a2565b5b600087013567ffffffffffffffff811115612aef57612aee6127a7565b5b612afb89828a01612a32565b96509650506020612b0e89828a01612a9f565b945050604087013567ffffffffffffffff811115612b2f57612b2e6127a7565b5b612b3b89828a01612a32565b93509350506060612b4e89828a016127c3565b9150509295509295509295565b60008060208385031215612b7257612b716127a2565b5b600083013567ffffffffffffffff811115612b9057612b8f6127a7565b5b612b9c85828601612a32565b92509250509250929050565b6000612bb3826128b1565b9050919050565b612bc381612ba8565b82525050565b6000602082019050612bde6000830184612bba565b92915050565b60008060008060008060808789031215612c0157612c006127a2565b5b600087013567ffffffffffffffff811115612c1f57612c1e6127a7565b5b612c2b89828a01612a32565b96509650506020612c3e89828a016127c3565b9450506040612c4f89828a016127c3565b935050606087013567ffffffffffffffff811115612c7057612c6f6127a7565b5b612c7c89828a01612a32565b92509250509295509295509295565b60008060408385031215612ca257612ca16127a2565b5b6000612cb085828601612a9f565b9250506020612cc1858286016127c3565b9150509250929050565b7f4e487b7100000000000000000000000000000000000000000000000000000000600052602160045260246000fd5b60038110612d0b57612d0a612ccb565b5b50565b6000819050612d1c82612cfa565b919050565b6000612d2c82612d0e565b9050919050565b612d3c81612d21565b82525050565b6000602082019050612d576000830184612d33565b92915050565b600081519050919050565b600082825260208201905092915050565b6000819050602082019050919050565b600060a0830160008301518482036000860152612da68282612878565b9150506020830151612dbb60208601826128f2565b5060408301518482036040860152612dd38282612878565b9150506060830151612de860608601826128e3565b506080830151612dfb60808601826128f2565b508091505092915050565b6000612e128383612d89565b905092915050565b6000602082019050919050565b6000612e3282612d5d565b612e3c8185612d68565b935083602082028501612e4e85612d79565b8060005b85811015612e8a5784840389528151612e6b8582612e06565b9450612e7683612e1a565b925060208a01995050600181019050612e52565b50829750879550505050505092915050565b60006060820190508181036000830152612eb68186612e27565b9050612ec560208301856126bd565b612ed260408301846126bd565b949350505050565b600081519050919050565b600082825260208201905092915050565b6000819050602082019050919050565b60006080830160008301518482036000860152612f238282612878565b9150506020830151612f3860208601826128e3565b5060408301518482036040860152612f508282612878565b9150506060830151612f6560608601826128f2565b508091505092915050565b6000612f7c8383612f06565b905092915050565b6000602082019050919050565b6000612f9c82612eda565b612fa68185612ee5565b935083602082028501612fb885612ef6565b8060005b85811015612ff45784840389528151612fd58582612f70565b9450612fe083612f84565b925060208a01995050600181019050612fbc565b50829750879550505050505092915050565b600060208201905081810360008301526130208184612f91565b905092915050565b60006101208201905061303e600083018c612bba565b61304b602083018b6126bd565b818103604083015261305d818a612747565b905061306c6060830189612d33565b61307960808301886126bd565b61308660a08301876126bd565b81810360c08301526130988186612e27565b905081810360e08301526130ac8185612f91565b90508181036101008301526130c1818461298c565b90509a9950505050505050505050565b7f4e487b7100000000000000000000000000000000000000000000000000000000600052602260045260246000fd5b6000600282049050600182168061311857607f821691505b60208210810361312b5761312a6130d1565b5b50919050565b7f4e487b7100000000000000000000000000000000000000000000000000000000600052603260045260246000fd5b7f4e487b7100000000000000000000000000000000000000000000000000000000600052601160045260246000fd5b600061319a826126b3565b91507fffffffffffffffffffffffffffffffffffffffffffffffffffffffffffffffff82036131cc576131cb613160565b5b600182019050919050565b7f4f6e6c792070726f6a6563742063726561746f722063616e206d616b6520612060008201527f636173686f757400000000000000000000000000000000000000000000000000602082015250565b60006132336027836126f2565b915061323e826131d7565b604082019050919050565b6000602082019050818103600083015261326281613226565b9050919050565b7f596f752063616e2072656d6f7665206d6f7265207468616e2063757272656e7460008201527f2062616c616e6365000000000000000000000000000000000000000000000000602082015250565b60006132c56028836126f2565b91506132d082613269565b604082019050919050565b600060208201905081810360008301526132f4816132b8565b9050919050565b6000819050919050565b600061332061331b613316846128b1565b6132fb565b6128b1565b9050919050565b600061333282613305565b9050919050565b600061334482613327565b9050919050565b61335481613339565b82525050565b600060408201905061336f600083018561334b565b61337c60208301846126bd565b9392505050565b61338c81612805565b811461339757600080fd5b50565b6000815190506133a981613383565b92915050565b6000602082840312156133c5576133c46127a2565b5b60006133d38482850161339a565b91505092915050565b6133e5816128d1565b82525050565b600060608201905061340060008301866133dc565b61340d60208301856126bd565b61341a60408301846126bd565b949350505050565b7f5468652070726f6a65637420676f616c20616d6f756e7420697320616c72656160008201527f6479207265616368656400000000000000000000000000000000000000000000602082015250565b600061347e602a836126f2565b915061348982613422565b604082019050919050565b600060208201905081810360008301526134ad81613471565b9050919050565b60006134bf826126b3565b91506134ca836126b3565b9250827fffffffffffffffffffffffffffffffffffffffffffffffffffffffffffffffff038211156134ff576134fe613160565b5b828201905092915050565b7f54686520616d6f756e7420697320746f6f206269672021000000000000000000600082015250565b60006135406017836126f2565b915061354b8261350a565b602082019050919050565b6000602082019050818103600083015261356f81613533565b9050919050565b600060608201905061358b60008301866133dc565b61359860208301856133dc565b6135a560408301846126bd565b949350505050565b7f596f7520617265206e6f7420616c6c6f77656420746f2073656e64206d6f6e6560008201527f7920210000000000000000000000000000000000000000000000000000000000602082015250565b60006136096023836126f2565b9150613614826135ad565b604082019050919050565b60006020820190508181036000830152613638816135fc565b9050919050565b7f4e6f206d6f7265206d6f6e657900000000000000000000000000000000000000600082015250565b6000613675600d836126f2565b91506136808261363f565b602082019050919050565b600060208201905081810360008301526136a481613668565b9050919050565b60006040820190506136c060008301856133dc565b6136cd60208301846126bd565b9392505050565b60006136df826126b3565b91506136ea836126b3565b9250828210156136fd576136fc613160565b5b82820390509291505056fea2646970667358221220a4e34a2a22debc6fa25bec493a47419d9432a3cb30361aa9efcb316c21532a1a64736f6c634300080d0033a26469706673582212208f27d2d8564baa49dfb8d68dee5414133a329dd1ad0f469061ba402c6162e8a164736f6c634300080d0033",
  "immutableReferences": {},
  "source": "// SPDX-License-Identifier: MIT\npragma solidity >=0.4.22 <0.9.0;\n\n// Importing SafeMath Implementation\nimport \"./polygon/SafeMath.sol\";\n\n// ITRC-20 contract\nimport \"./polygon/IERC20.sol\";\n\n// Import Project Contract\nimport \"./Project.sol\";\n\ncontract GoAfrica {\n    using SafeMath for uint256;\n\n    /* List of all the project in the contract */\n    Project[] public projects;\n\n    /* Event when new project is created */\n    event ProjectStarted(\n        address contractAddress,\n        address projectCreator,\n        uint256 ref,\n        string title,\n        uint256 goalAmount\n    );\n\n    /* Get project detail by Ref */\n    function getProjectByRef(uint256 projectRef)\n        external\n        view\n        returns (\n            Project proj,\n            uint256 ref,\n            uint256 goalAmount,\n            uint256 currentAmount,\n            string memory title\n        )\n    {\n        for (uint256 i = 0; i < projects.length; i++) {\n            proj = Project(projects[i]);\n            if (proj.getReference() == projectRef) {\n                return (\n                    proj,\n                    proj.getReference(),\n                    proj.getGoalBalance(),\n                    proj.getCurrentbalance(),\n                    proj.getTitle()\n                );\n            }\n        }\n        return (proj, ref, goalAmount, currentAmount, title); /* Return all type default value */\n    }\n\n    /* get a project address */\n    function getprojectAddress(uint256 projectRef)\n        external\n        view\n        returns (Project project)\n    {\n        for (uint256 i = 0; i < projects.length; i++) {\n            project = Project(projects[i]);\n            if (project.getReference() == projectRef) {\n                return project;\n            }\n        }\n        return project;\n    }\n\n    /*\n     *   Create a new Project and return it\n     */\n    function createProject(\n        IERC20 ercToken,\n        uint256 projectRef,\n        uint256 projectGoalAmount,\n        string calldata projectTitle\n    ) external returns (Project) {\n        Project project = new Project(\n            ercToken,\n            payable(msg.sender),\n            projectRef,\n            projectGoalAmount,\n            projectTitle\n        );\n\n        projects.push(project);\n        emit ProjectStarted(\n            address(project),\n            msg.sender,\n            projectRef,\n            projectTitle,\n            projectGoalAmount\n        );\n\n        return project;\n    }\n\n    /* Return all project addresses */\n    function returnProjectsAddresses()\n        external\n        view\n        returns (Project[] memory)\n    {\n        return projects;\n    }\n}\n",
  "sourcePath": "/home/flashelperz/Documents/Code/Web/Solidity/polygon-hackathon/smart-contract/contracts/GoAfrica.sol",
  "compiler": {
    "name": "solc",
    "version": "0.8.13+commit.abaa5c0e.Emscripten.clang"
  },
  "schemaVersion": "3.4.3",
  "updatedAt": "2022-08-22T05:31:05.164Z",
  "networkType": "ethereum",
  "devdoc": {
    "kind": "dev",
    "methods": {},
    "version": 1
  },
  "userdoc": {
    "kind": "user",
    "methods": {},
    "version": 1
  }
}